{
  "contractName": "VotingFactory",
  "abi": [
    {
      "inputs": [],
      "stateMutability": "nonpayable",
      "type": "constructor"
    },
    {
      "inputs": [
        {
          "internalType": "uint256",
          "name": "",
          "type": "uint256"
        }
      ],
      "name": "deployedElections",
      "outputs": [
        {
          "internalType": "contract votingSystem",
          "name": "",
          "type": "address"
        }
      ],
      "stateMutability": "view",
      "type": "function",
      "constant": true
    },
    {
      "inputs": [
        {
          "internalType": "string",
          "name": "_name",
          "type": "string"
        },
        {
          "internalType": "uint8",
          "name": "_level",
          "type": "uint8"
        },
        {
          "internalType": "uint8",
          "name": "_electionType",
          "type": "uint8"
        }
      ],
      "name": "createElection",
      "outputs": [],
      "stateMutability": "nonpayable",
      "type": "function"
    },
    {
      "inputs": [],
      "name": "getDeployedElections",
      "outputs": [
        {
          "internalType": "contract votingSystem[]",
          "name": "",
          "type": "address[]"
        }
      ],
      "stateMutability": "view",
      "type": "function",
      "constant": true
    }
  ],
  "bytecode": "0x608060405234801561001057600080fd5b50336000806101000a81548173ffffffffffffffffffffffffffffffffffffffff021916908373ffffffffffffffffffffffffffffffffffffffff160217905550613019806100606000396000f3fe60806040523480156200001157600080fd5b5060043610620000465760003560e01c80638ca8cba8146200004b578063ca306594146200006b578063f18b4f8e146200008d575b600080fd5b620000696004803603810190620000639190620004b2565b620000c3565b005b6200007562000220565b60405162000084919062000675565b60405180910390f35b620000ab6004803603810190620000a59190620006d4565b620002b0565b604051620000ba919062000717565b60405180910390f35b60008054906101000a900473ffffffffffffffffffffffffffffffffffffffff1673ffffffffffffffffffffffffffffffffffffffff163373ffffffffffffffffffffffffffffffffffffffff161462000154576040517f08c379a00000000000000000000000000000000000000000000000000000000081526004016200014b90620007bb565b60405180910390fd5b600083838360008054906101000a900473ffffffffffffffffffffffffffffffffffffffff166040516200018890620002f0565b62000197949392919062000895565b604051809103906000f080158015620001b4573d6000803e3d6000fd5b5090506001819080600181540180825580915050600190039060005260206000200160009091909190916101000a81548173ffffffffffffffffffffffffffffffffffffffff021916908373ffffffffffffffffffffffffffffffffffffffff16021790555050505050565b60606001805480602002602001604051908101604052809291908181526020018280548015620002a657602002820191906000526020600020905b8160009054906101000a900473ffffffffffffffffffffffffffffffffffffffff1673ffffffffffffffffffffffffffffffffffffffff16815260200190600101908083116200025b575b5050505050905090565b60018181548110620002c157600080fd5b906000526020600020016000915054906101000a900473ffffffffffffffffffffffffffffffffffffffff1681565b6126fa80620008ea83390190565b6000604051905090565b600080fd5b600080fd5b600080fd5b600080fd5b6000601f19601f8301169050919050565b7f4e487b7100000000000000000000000000000000000000000000000000000000600052604160045260246000fd5b62000367826200031c565b810181811067ffffffffffffffff821117156200038957620003886200032d565b5b80604052505050565b60006200039e620002fe565b9050620003ac82826200035c565b919050565b600067ffffffffffffffff821115620003cf57620003ce6200032d565b5b620003da826200031c565b9050602081019050919050565b82818337600083830152505050565b60006200040d6200040784620003b1565b62000392565b9050828152602081018484840111156200042c576200042b62000317565b5b62000439848285620003e7565b509392505050565b600082601f83011262000459576200045862000312565b5b81356200046b848260208601620003f6565b91505092915050565b600060ff82169050919050565b6200048c8162000474565b81146200049857600080fd5b50565b600081359050620004ac8162000481565b92915050565b600080600060608486031215620004ce57620004cd62000308565b5b600084013567ffffffffffffffff811115620004ef57620004ee6200030d565b5b620004fd8682870162000441565b935050602062000510868287016200049b565b925050604062000523868287016200049b565b9150509250925092565b600081519050919050565b600082825260208201905092915050565b6000819050602082019050919050565b600073ffffffffffffffffffffffffffffffffffffffff82169050919050565b6000819050919050565b6000620005a46200059e620005988462000559565b62000579565b62000559565b9050919050565b6000620005b88262000583565b9050919050565b6000620005cc82620005ab565b9050919050565b620005de81620005bf565b82525050565b6000620005f28383620005d3565b60208301905092915050565b6000602082019050919050565b600062000618826200052d565b62000624818562000538565b9350620006318362000549565b8060005b83811015620006685781516200064c8882620005e4565b97506200065983620005fe565b92505060018101905062000635565b5085935050505092915050565b600060208201905081810360008301526200069181846200060b565b905092915050565b6000819050919050565b620006ae8162000699565b8114620006ba57600080fd5b50565b600081359050620006ce81620006a3565b92915050565b600060208284031215620006ed57620006ec62000308565b5b6000620006fd84828501620006bd565b91505092915050565b6200071181620005bf565b82525050565b60006020820190506200072e600083018462000706565b92915050565b600082825260208201905092915050565b7f4f6e6c792061646d696e2063616e2063726561746520616e20656c656374696f60008201527f6e00000000000000000000000000000000000000000000000000000000000000602082015250565b6000620007a360218362000734565b9150620007b08262000745565b604082019050919050565b60006020820190508181036000830152620007d68162000794565b9050919050565b600081519050919050565b60005b8381101562000808578082015181840152602081019050620007eb565b8381111562000818576000848401525b50505050565b60006200082b82620007dd565b62000837818562000734565b935062000849818560208601620007e8565b62000854816200031c565b840191505092915050565b6200086a8162000474565b82525050565b60006200087d8262000559565b9050919050565b6200088f8162000870565b82525050565b60006080820190508181036000830152620008b181876200081e565b9050620008c260208301866200085f565b620008d160408301856200085f565b620008e0606083018462000884565b9594505050505056fe60806040523480156200001157600080fd5b50604051620026fa380380620026fa833981810160405281019062000037919062000504565b806000806101000a81548173ffffffffffffffffffffffffffffffffffffffff021916908373ffffffffffffffffffffffffffffffffffffffff16021790555060028360ff161115620000c1576040517f08c379a0000000000000000000000000000000000000000000000000000000008152600401620000b890620005f6565b60405180910390fd5b60018260ff1611156200010b576040517f08c379a00000000000000000000000000000000000000000000000000000000081526004016200010290620005f6565b60405180910390fd5b60405180606001604052808581526020018460ff16600281111562000135576200013462000618565b5b60028111156200014a576200014962000618565b5b81526020018360ff16600181111562000168576200016762000618565b5b60018111156200017d576200017c62000618565b5b81525060016000820151816000019080519060200190620001a092919062000214565b5060208201518160010160006101000a81548160ff02191690836002811115620001cf57620001ce62000618565b5b021790555060408201518160010160016101000a81548160ff0219169083600181111562000202576200020162000618565b5b021790555090505050505050620006ac565b828054620002229062000676565b90600052602060002090601f01602090048101928262000246576000855562000292565b82601f106200026157805160ff191683800117855562000292565b8280016001018555821562000292579182015b828111156200029157825182559160200191906001019062000274565b5b509050620002a19190620002a5565b5090565b5b80821115620002c0576000816000905550600101620002a6565b5090565b6000604051905090565b600080fd5b600080fd5b600080fd5b600080fd5b6000601f19601f8301169050919050565b7f4e487b7100000000000000000000000000000000000000000000000000000000600052604160045260246000fd5b6200032d82620002e2565b810181811067ffffffffffffffff821117156200034f576200034e620002f3565b5b80604052505050565b600062000364620002c4565b905062000372828262000322565b919050565b600067ffffffffffffffff821115620003955762000394620002f3565b5b620003a082620002e2565b9050602081019050919050565b60005b83811015620003cd578082015181840152602081019050620003b0565b83811115620003dd576000848401525b50505050565b6000620003fa620003f48462000377565b62000358565b905082815260208101848484011115620004195762000418620002dd565b5b62000426848285620003ad565b509392505050565b600082601f830112620004465762000445620002d8565b5b815162000458848260208601620003e3565b91505092915050565b600060ff82169050919050565b620004798162000461565b81146200048557600080fd5b50565b60008151905062000499816200046e565b92915050565b600073ffffffffffffffffffffffffffffffffffffffff82169050919050565b6000620004cc826200049f565b9050919050565b620004de81620004bf565b8114620004ea57600080fd5b50565b600081519050620004fe81620004d3565b92915050565b60008060008060808587031215620005215762000520620002ce565b5b600085015167ffffffffffffffff811115620005425762000541620002d3565b5b62000550878288016200042e565b9450506020620005638782880162000488565b9350506040620005768782880162000488565b92505060606200058987828801620004ed565b91505092959194509250565b600082825260208201905092915050565b7f4f7574206f6620626f756e640000000000000000000000000000000000000000600082015250565b6000620005de600c8362000595565b9150620005eb82620005a6565b602082019050919050565b600060208201905081810360008301526200061181620005cf565b9050919050565b7f4e487b7100000000000000000000000000000000000000000000000000000000600052602160045260246000fd5b7f4e487b7100000000000000000000000000000000000000000000000000000000600052602260045260246000fd5b600060028204905060018216806200068f57607f821691505b60208210811415620006a657620006a562000647565b5b50919050565b61203e80620006bc6000396000f3fe6080604052600436106100a75760003560e01c80636dd7d8ea116100645780636dd7d8ea146101d157806381f539ff146101fa57806386852dca1461022957806392434d7c146102565780639ed1f25514610272578063cdd72253146102b3576100a7565b806306a49fce146100ac57806307be7e91146100d7578063119d4ddb1461010057806318abf0781461012957806328bde1e114610152578063446a37e014610193575b600080fd5b3480156100b857600080fd5b506100c16102de565b6040516100ce919061156e565b60405180910390f35b3480156100e357600080fd5b506100fe60048036038101906100f991906115d0565b61036c565b005b34801561010c57600080fd5b50610127600480360381019061012291906115d0565b6105b4565b005b34801561013557600080fd5b50610150600480360381019061014b91906117b2565b6107fc565b005b34801561015e57600080fd5b50610179600480360381019061017491906115d0565b61096c565b60405161018a959493929190611952565b60405180910390f35b34801561019f57600080fd5b506101ba60048036038101906101b591906115d0565b610b74565b6040516101c89291906119b3565b60405180910390f35b3480156101dd57600080fd5b506101f860048036038101906101f391906115d0565b610bc3565b005b34801561020657600080fd5b5061020f610d54565b6040516102209594939291906119dc565b60405180910390f35b34801561023557600080fd5b5061023e610ed3565b60405161024d93929190611ac6565b60405180910390f35b610270600480360381019061026b9190611b04565b610f98565b005b34801561027e57600080fd5b50610299600480360381019061029491906115d0565b6111cc565b6040516102aa9594939291906119dc565b60405180910390f35b3480156102bf57600080fd5b506102c861134d565b6040516102d5919061156e565b60405180910390f35b6060600680548060200260200160405190810160405280929190818152602001828054801561036257602002820191906000526020600020905b8160009054906101000a900473ffffffffffffffffffffffffffffffffffffffff1673ffffffffffffffffffffffffffffffffffffffff1681526020019060010190808311610318575b5050505050905090565b3373ffffffffffffffffffffffffffffffffffffffff1660008054906101000a900473ffffffffffffffffffffffffffffffffffffffff1673ffffffffffffffffffffffffffffffffffffffff16146103fa576040517f08c379a00000000000000000000000000000000000000000000000000000000081526004016103f190611c15565b60405180910390fd5b6000600281111561040e5761040d6118db565b5b600560008373ffffffffffffffffffffffffffffffffffffffff1673ffffffffffffffffffffffffffffffffffffffff16815260200190815260200160002060040160009054906101000a900460ff1660028111156104705761046f6118db565b5b146104b0576040517f08c379a00000000000000000000000000000000000000000000000000000000081526004016104a790611c81565b60405180910390fd5b601e600560008373ffffffffffffffffffffffffffffffffffffffff1673ffffffffffffffffffffffffffffffffffffffff16815260200190815260200160002060020160009054906101000a900460ff1660ff161015610546576040517f08c379a000000000000000000000000000000000000000000000000000000000815260040161053d90611ced565b60405180910390fd5b6001600560008373ffffffffffffffffffffffffffffffffffffffff1673ffffffffffffffffffffffffffffffffffffffff16815260200190815260200160002060040160006101000a81548160ff021916908360028111156105ac576105ab6118db565b5b021790555050565b3373ffffffffffffffffffffffffffffffffffffffff1660008054906101000a900473ffffffffffffffffffffffffffffffffffffffff1673ffffffffffffffffffffffffffffffffffffffff1614610642576040517f08c379a000000000000000000000000000000000000000000000000000000000815260040161063990611c15565b60405180910390fd5b60006002811115610656576106556118db565b5b600360008373ffffffffffffffffffffffffffffffffffffffff1673ffffffffffffffffffffffffffffffffffffffff16815260200190815260200160002060040160009054906101000a900460ff1660028111156106b8576106b76118db565b5b146106f8576040517f08c379a00000000000000000000000000000000000000000000000000000000081526004016106ef90611d7f565b60405180910390fd5b6012600360008373ffffffffffffffffffffffffffffffffffffffff1673ffffffffffffffffffffffffffffffffffffffff16815260200190815260200160002060010160009054906101000a900460ff1660ff16101561078e576040517f08c379a000000000000000000000000000000000000000000000000000000000815260040161078590611deb565b60405180910390fd5b6001600360008373ffffffffffffffffffffffffffffffffffffffff1673ffffffffffffffffffffffffffffffffffffffff16815260200190815260200160002060040160006101000a81548160ff021916908360028111156107f4576107f36118db565b5b021790555050565b60006040518060a001604052808681526020018560ff16815260200184815260200183815260200160006002811115610838576108376118db565b5b81525090506007339080600181540180825580915050600190039060005260206000200160009091909190916101000a81548173ffffffffffffffffffffffffffffffffffffffff021916908373ffffffffffffffffffffffffffffffffffffffff16021790555080600360003373ffffffffffffffffffffffffffffffffffffffff1673ffffffffffffffffffffffffffffffffffffffff16815260200190815260200160002060008201518160000190805190602001906108fc9291906113db565b5060208201518160010160006101000a81548160ff021916908360ff160217905550604082015181600201556060820151816003015560808201518160040160006101000a81548160ff0219169083600281111561095d5761095c6118db565b5b02179055509050505050505050565b606080600080600080600560008873ffffffffffffffffffffffffffffffffffffffff1673ffffffffffffffffffffffffffffffffffffffff1681526020019081526020016000206040518060a00160405290816000820180546109cf90611e3a565b80601f01602080910402602001604051908101604052809291908181526020018280546109fb90611e3a565b8015610a485780601f10610a1d57610100808354040283529160200191610a48565b820191906000526020600020905b815481529060010190602001808311610a2b57829003601f168201915b50505050508152602001600182018054610a6190611e3a565b80601f0160208091040260200160405190810160405280929190818152602001828054610a8d90611e3a565b8015610ada5780601f10610aaf57610100808354040283529160200191610ada565b820191906000526020600020905b815481529060010190602001808311610abd57829003601f168201915b505050505081526020016002820160009054906101000a900460ff1660ff1660ff168152602001600382015481526020016004820160009054906101000a900460ff166002811115610b2f57610b2e6118db565b5b6002811115610b4157610b406118db565b5b81525050905080600001518160200151826040015183606001518460800151955095509550955095505091939590929450565b600080600460008473ffffffffffffffffffffffffffffffffffffffff1673ffffffffffffffffffffffffffffffffffffffff1681526020019081526020016000205460085491509150915091565b60016002811115610bd757610bd66118db565b5b600360003373ffffffffffffffffffffffffffffffffffffffff1673ffffffffffffffffffffffffffffffffffffffff16815260200190815260200160002060040160009054906101000a900460ff166002811115610c3957610c386118db565b5b14610c79576040517f08c379a0000000000000000000000000000000000000000000000000000000008152600401610c7090611ede565b60405180910390fd5b600460008273ffffffffffffffffffffffffffffffffffffffff1673ffffffffffffffffffffffffffffffffffffffff1681526020019081526020016000206000815480929190610cc990611f2d565b919050555060086000815480929190610ce190611f2d565b91905055506002600360003373ffffffffffffffffffffffffffffffffffffffff1673ffffffffffffffffffffffffffffffffffffffff16815260200190815260200160002060040160006101000a81548160ff02191690836002811115610d4c57610d4b6118db565b5b021790555050565b60606000806000806000600360003373ffffffffffffffffffffffffffffffffffffffff1673ffffffffffffffffffffffffffffffffffffffff1681526020019081526020016000206040518060a0016040529081600082018054610db890611e3a565b80601f0160208091040260200160405190810160405280929190818152602001828054610de490611e3a565b8015610e315780601f10610e0657610100808354040283529160200191610e31565b820191906000526020600020905b815481529060010190602001808311610e1457829003601f168201915b505050505081526020016001820160009054906101000a900460ff1660ff1660ff16815260200160028201548152602001600382015481526020016004820160009054906101000a900460ff166002811115610e9057610e8f6118db565b5b6002811115610ea257610ea16118db565b5b8152505090508060000151816020015182604001518360600151846080015195509550955095509550509091929394565b606060008060016000016001800160009054906101000a900460ff166001800160019054906101000a900460ff16828054610f0d90611e3a565b80601f0160208091040260200160405190810160405280929190818152602001828054610f3990611e3a565b8015610f865780601f10610f5b57610100808354040283529160200191610f86565b820191906000526020600020905b815481529060010190602001808311610f6957829003601f168201915b50505050509250925092509250909192565b670de0b6b3a76400003414610fe2576040517f08c379a0000000000000000000000000000000000000000000000000000000008152600401610fd990611fe8565b60405180910390fd5b60006040518060a001604052808681526020018581526020018460ff1681526020018381526020016000600281111561101e5761101d6118db565b5b81525090506006339080600181540180825580915050600190039060005260206000200160009091909190916101000a81548173ffffffffffffffffffffffffffffffffffffffff021916908373ffffffffffffffffffffffffffffffffffffffff16021790555080600560003373ffffffffffffffffffffffffffffffffffffffff1673ffffffffffffffffffffffffffffffffffffffff16815260200190815260200160002060008201518160000190805190602001906110e29291906113db565b5060208201518160010190805190602001906110ff9291906113db565b5060408201518160020160006101000a81548160ff021916908360ff1602179055506060820151816003015560808201518160040160006101000a81548160ff02191690836002811115611156576111556118db565b5b021790555090505060008054906101000a900473ffffffffffffffffffffffffffffffffffffffff1673ffffffffffffffffffffffffffffffffffffffff166108fc349081150290604051600060405180830381858888f193505050501580156111c4573d6000803e3d6000fd5b505050505050565b60606000806000806000600360008873ffffffffffffffffffffffffffffffffffffffff1673ffffffffffffffffffffffffffffffffffffffff1681526020019081526020016000206040518060a001604052908160008201805461123090611e3a565b80601f016020809104026020016040519081016040528092919081815260200182805461125c90611e3a565b80156112a95780601f1061127e576101008083540402835291602001916112a9565b820191906000526020600020905b81548152906001019060200180831161128c57829003601f168201915b505050505081526020016001820160009054906101000a900460ff1660ff1660ff16815260200160028201548152602001600382015481526020016004820160009054906101000a900460ff166002811115611308576113076118db565b5b600281111561131a576113196118db565b5b81525050905080600001518160200151826040015183606001518460800151955095509550955095505091939590929450565b606060078054806020026020016040519081016040528092919081815260200182805480156113d157602002820191906000526020600020905b8160009054906101000a900473ffffffffffffffffffffffffffffffffffffffff1673ffffffffffffffffffffffffffffffffffffffff1681526020019060010190808311611387575b5050505050905090565b8280546113e790611e3a565b90600052602060002090601f0160209004810192826114095760008555611450565b82601f1061142257805160ff1916838001178555611450565b82800160010185558215611450579182015b8281111561144f578251825591602001919060010190611434565b5b50905061145d9190611461565b5090565b5b8082111561147a576000816000905550600101611462565b5090565b600081519050919050565b600082825260208201905092915050565b6000819050602082019050919050565b600073ffffffffffffffffffffffffffffffffffffffff82169050919050565b60006114d5826114aa565b9050919050565b6114e5816114ca565b82525050565b60006114f783836114dc565b60208301905092915050565b6000602082019050919050565b600061151b8261147e565b6115258185611489565b93506115308361149a565b8060005b8381101561156157815161154888826114eb565b975061155383611503565b925050600181019050611534565b5085935050505092915050565b600060208201905081810360008301526115888184611510565b905092915050565b6000604051905090565b600080fd5b600080fd5b6115ad816114ca565b81146115b857600080fd5b50565b6000813590506115ca816115a4565b92915050565b6000602082840312156115e6576115e561159a565b5b60006115f4848285016115bb565b91505092915050565b600080fd5b600080fd5b6000601f19601f8301169050919050565b7f4e487b7100000000000000000000000000000000000000000000000000000000600052604160045260246000fd5b61165082611607565b810181811067ffffffffffffffff8211171561166f5761166e611618565b5b80604052505050565b6000611682611590565b905061168e8282611647565b919050565b600067ffffffffffffffff8211156116ae576116ad611618565b5b6116b782611607565b9050602081019050919050565b82818337600083830152505050565b60006116e66116e184611693565b611678565b90508281526020810184848401111561170257611701611602565b5b61170d8482856116c4565b509392505050565b600082601f83011261172a576117296115fd565b5b813561173a8482602086016116d3565b91505092915050565b600060ff82169050919050565b61175981611743565b811461176457600080fd5b50565b60008135905061177681611750565b92915050565b6000819050919050565b61178f8161177c565b811461179a57600080fd5b50565b6000813590506117ac81611786565b92915050565b600080600080608085870312156117cc576117cb61159a565b5b600085013567ffffffffffffffff8111156117ea576117e961159f565b5b6117f687828801611715565b945050602061180787828801611767565b93505060406118188782880161179d565b92505060606118298782880161179d565b91505092959194509250565b600081519050919050565b600082825260208201905092915050565b60005b8381101561186f578082015181840152602081019050611854565b8381111561187e576000848401525b50505050565b600061188f82611835565b6118998185611840565b93506118a9818560208601611851565b6118b281611607565b840191505092915050565b6118c681611743565b82525050565b6118d58161177c565b82525050565b7f4e487b7100000000000000000000000000000000000000000000000000000000600052602160045260246000fd5b6003811061191b5761191a6118db565b5b50565b600081905061192c8261190a565b919050565b600061193c8261191e565b9050919050565b61194c81611931565b82525050565b600060a082019050818103600083015261196c8188611884565b905081810360208301526119808187611884565b905061198f60408301866118bd565b61199c60608301856118cc565b6119a96080830184611943565b9695505050505050565b60006040820190506119c860008301856118cc565b6119d560208301846118cc565b9392505050565b600060a08201905081810360008301526119f68188611884565b9050611a0560208301876118bd565b611a1260408301866118cc565b611a1f60608301856118cc565b611a2c6080830184611943565b9695505050505050565b60038110611a4757611a466118db565b5b50565b6000819050611a5882611a36565b919050565b6000611a6882611a4a565b9050919050565b611a7881611a5d565b82525050565b60028110611a8f57611a8e6118db565b5b50565b6000819050611aa082611a7e565b919050565b6000611ab082611a92565b9050919050565b611ac081611aa5565b82525050565b60006060820190508181036000830152611ae08186611884565b9050611aef6020830185611a6f565b611afc6040830184611ab7565b949350505050565b60008060008060808587031215611b1e57611b1d61159a565b5b600085013567ffffffffffffffff811115611b3c57611b3b61159f565b5b611b4887828801611715565b945050602085013567ffffffffffffffff811115611b6957611b6861159f565b5b611b7587828801611715565b9350506040611b8687828801611767565b9250506060611b978782880161179d565b91505092959194509250565b7f4f6e6c792061646d696e6973747261746f72732068617665207468652061636360008201527f65737320746f207468697320616374696f6e0000000000000000000000000000602082015250565b6000611bff603283611840565b9150611c0a82611ba3565b604082019050919050565b60006020820190508181036000830152611c2e81611bf2565b9050919050565b7f43616e646964617465206e6f7420726567697374657265640000000000000000600082015250565b6000611c6b601883611840565b9150611c7682611c35565b602082019050919050565b60006020820190508181036000830152611c9a81611c5e565b9050919050565b7f43616e646964617465206973206e6f7420656c696769626c6500000000000000600082015250565b6000611cd7601983611840565b9150611ce282611ca1565b602082019050919050565b60006020820190508181036000830152611d0681611cca565b9050919050565b7f4569746865722074686520766f746572206973206e6f7420726567697374657260008201527f6564206f7220616c726561647920617070726f76656400000000000000000000602082015250565b6000611d69603683611840565b9150611d7482611d0d565b604082019050919050565b60006020820190508181036000830152611d9881611d5c565b9050919050565b7f4e6f7420616e20656c696769626c6520766f7465720000000000000000000000600082015250565b6000611dd5601583611840565b9150611de082611d9f565b602082019050919050565b60006020820190508181036000830152611e0481611dc8565b9050919050565b7f4e487b7100000000000000000000000000000000000000000000000000000000600052602260045260246000fd5b60006002820490506001821680611e5257607f821691505b60208210811415611e6657611e65611e0b565b5b50919050565b7f45697468657220796f75206e6f742072656769737465726564206f7220616c7260008201527f6561647920766f74656400000000000000000000000000000000000000000000602082015250565b6000611ec8602a83611840565b9150611ed382611e6c565b604082019050919050565b60006020820190508181036000830152611ef781611ebb565b9050919050565b7f4e487b7100000000000000000000000000000000000000000000000000000000600052601160045260246000fd5b6000611f388261177c565b91507fffffffffffffffffffffffffffffffffffffffffffffffffffffffffffffffff821415611f6b57611f6a611efe565b5b600182019050919050565b7f416d6f756e742073686f756c642062652065786163746c7920657175616c207460008201527f6f20312045544845520000000000000000000000000000000000000000000000602082015250565b6000611fd2602983611840565b9150611fdd82611f76565b604082019050919050565b6000602082019050818103600083015261200181611fc5565b905091905056fea2646970667358221220c57089a8c9c509e281adb273bce6f69ddaee2cdce530c6dc34a89625f11184c564736f6c634300080c0033a2646970667358221220236f6a528c8e380e0b212660f72d6578a7507368de63c20b04cd3f2518ae3e5864736f6c634300080c0033",
  "immutableReferences": {},
  "source": "// SPDX-License-Identifier: MIT\r\npragma solidity >=0.6.0 <0.9.0;\r\n\r\nimport \"./VotingSystem.sol\";\r\n\r\ncontract VotingFactory{\r\n    \r\n    address payable adminstrator;\r\n    votingSystem[] public deployedElections;\r\n    constructor(){\r\n        adminstrator = payable(msg.sender);\r\n    }\r\n    function createElection(string memory _name, uint8 _level, uint8 _electionType) public {\r\n        require(msg.sender == adminstrator, \"Only admin can create an election\");\r\n        votingSystem newElection = new votingSystem(_name,_level,_electionType,adminstrator);\r\n        deployedElections.push(newElection);\r\n    }\r\n\r\n    function getDeployedElections() public view returns (votingSystem[] memory){\r\n        return deployedElections;\r\n    }\r\n    \r\n}",
  "sourcePath": "E:\\Shashank.summer\\Shashank\\my-proj\\contracts\\contracts\\votingFactory.sol",
  "compiler": {
    "name": "solc",
    "version": "0.8.12+commit.f00d7308.Emscripten.clang"
  },
  "schemaVersion": "3.4.5",
  "updatedAt": "2022-04-22T04:27:54.051Z",
  "networkType": "ethereum",
  "devdoc": {
    "kind": "dev",
    "methods": {},
    "version": 1
  },
  "userdoc": {
    "kind": "user",
    "methods": {},
    "version": 1
  }
}