{
  "contractName": "votingSystem",
  "abi": [
    {
      "inputs": [
        {
          "internalType": "string",
          "name": "_name",
          "type": "string"
        },
        {
          "internalType": "uint8",
          "name": "_level",
          "type": "uint8"
        },
        {
          "internalType": "uint8",
          "name": "_electionType",
          "type": "uint8"
        },
        {
          "internalType": "address payable",
          "name": "_address",
          "type": "address"
        }
      ],
      "stateMutability": "nonpayable",
      "type": "constructor"
    },
    {
      "inputs": [
        {
          "internalType": "address",
          "name": "_address",
          "type": "address"
        }
      ],
      "name": "vote",
      "outputs": [],
      "stateMutability": "nonpayable",
      "type": "function"
    },
    {
      "inputs": [
        {
          "internalType": "string",
          "name": "_name",
          "type": "string"
        },
        {
          "internalType": "uint8",
          "name": "_age",
          "type": "uint8"
        },
        {
          "internalType": "uint256",
          "name": "_aadharNumber",
          "type": "uint256"
        },
        {
          "internalType": "uint256",
          "name": "_phone",
          "type": "uint256"
        }
      ],
      "name": "registerVoter",
      "outputs": [],
      "stateMutability": "nonpayable",
      "type": "function"
    },
    {
      "inputs": [
        {
          "internalType": "string",
          "name": "_name",
          "type": "string"
        },
        {
          "internalType": "string",
          "name": "_party",
          "type": "string"
        },
        {
          "internalType": "uint8",
          "name": "_age",
          "type": "uint8"
        },
        {
          "internalType": "uint256",
          "name": "_aadharNumber",
          "type": "uint256"
        }
      ],
      "name": "registerCandidate",
      "outputs": [],
      "stateMutability": "payable",
      "type": "function"
    },
    {
      "inputs": [
        {
          "internalType": "address",
          "name": "_address",
          "type": "address"
        }
      ],
      "name": "approveCandidate",
      "outputs": [],
      "stateMutability": "nonpayable",
      "type": "function"
    },
    {
      "inputs": [
        {
          "internalType": "address",
          "name": "votersAddress",
          "type": "address"
        }
      ],
      "name": "approveVoter",
      "outputs": [],
      "stateMutability": "nonpayable",
      "type": "function"
    },
    {
      "inputs": [],
      "name": "getPersonalInfo",
      "outputs": [
        {
          "internalType": "string",
          "name": "",
          "type": "string"
        },
        {
          "internalType": "uint8",
          "name": "",
          "type": "uint8"
        },
        {
          "internalType": "uint256",
          "name": "",
          "type": "uint256"
        },
        {
          "internalType": "uint256",
          "name": "",
          "type": "uint256"
        },
        {
          "internalType": "enum votingSystem.Status",
          "name": "",
          "type": "uint8"
        }
      ],
      "stateMutability": "view",
      "type": "function"
    },
    {
      "inputs": [],
      "name": "getElectionInfo",
      "outputs": [
        {
          "internalType": "string",
          "name": "",
          "type": "string"
        },
        {
          "internalType": "enum votingSystem.Level",
          "name": "",
          "type": "uint8"
        },
        {
          "internalType": "enum votingSystem.ElectionType",
          "name": "",
          "type": "uint8"
        }
      ],
      "stateMutability": "view",
      "type": "function"
    },
    {
      "inputs": [],
      "name": "getCandidates",
      "outputs": [
        {
          "internalType": "address[]",
          "name": "",
          "type": "address[]"
        }
      ],
      "stateMutability": "view",
      "type": "function"
    },
    {
      "inputs": [
        {
          "internalType": "address",
          "name": "_address",
          "type": "address"
        }
      ],
      "name": "getCandidateInfo",
      "outputs": [
        {
          "internalType": "string",
          "name": "",
          "type": "string"
        },
        {
          "internalType": "string",
          "name": "",
          "type": "string"
        },
        {
          "internalType": "uint8",
          "name": "",
          "type": "uint8"
        },
        {
          "internalType": "uint256",
          "name": "",
          "type": "uint256"
        },
        {
          "internalType": "enum votingSystem.Status",
          "name": "",
          "type": "uint8"
        }
      ],
      "stateMutability": "view",
      "type": "function"
    },
    {
      "inputs": [],
      "name": "getVoters",
      "outputs": [
        {
          "internalType": "address[]",
          "name": "",
          "type": "address[]"
        }
      ],
      "stateMutability": "view",
      "type": "function"
    },
    {
      "inputs": [
        {
          "internalType": "address",
          "name": "_address",
          "type": "address"
        }
      ],
      "name": "getVoterInfo",
      "outputs": [
        {
          "internalType": "string",
          "name": "",
          "type": "string"
        },
        {
          "internalType": "uint8",
          "name": "",
          "type": "uint8"
        },
        {
          "internalType": "uint256",
          "name": "",
          "type": "uint256"
        },
        {
          "internalType": "uint256",
          "name": "",
          "type": "uint256"
        },
        {
          "internalType": "enum votingSystem.Status",
          "name": "",
          "type": "uint8"
        }
      ],
      "stateMutability": "view",
      "type": "function"
    },
    {
      "inputs": [
        {
          "internalType": "address",
          "name": "_address",
          "type": "address"
        }
      ],
      "name": "getResult",
      "outputs": [
        {
          "internalType": "uint256",
          "name": "",
          "type": "uint256"
        },
        {
          "internalType": "uint256",
          "name": "",
          "type": "uint256"
        }
      ],
      "stateMutability": "view",
      "type": "function"
    }
  ],
  "bytecode": "0x60806040523480156200001157600080fd5b50604051620026fa380380620026fa833981810160405281019062000037919062000504565b806000806101000a81548173ffffffffffffffffffffffffffffffffffffffff021916908373ffffffffffffffffffffffffffffffffffffffff16021790555060028360ff161115620000c1576040517f08c379a0000000000000000000000000000000000000000000000000000000008152600401620000b890620005f6565b60405180910390fd5b60018260ff1611156200010b576040517f08c379a00000000000000000000000000000000000000000000000000000000081526004016200010290620005f6565b60405180910390fd5b60405180606001604052808581526020018460ff16600281111562000135576200013462000618565b5b60028111156200014a576200014962000618565b5b81526020018360ff16600181111562000168576200016762000618565b5b60018111156200017d576200017c62000618565b5b81525060016000820151816000019080519060200190620001a092919062000214565b5060208201518160010160006101000a81548160ff02191690836002811115620001cf57620001ce62000618565b5b021790555060408201518160010160016101000a81548160ff0219169083600181111562000202576200020162000618565b5b021790555090505050505050620006ac565b828054620002229062000676565b90600052602060002090601f01602090048101928262000246576000855562000292565b82601f106200026157805160ff191683800117855562000292565b8280016001018555821562000292579182015b828111156200029157825182559160200191906001019062000274565b5b509050620002a19190620002a5565b5090565b5b80821115620002c0576000816000905550600101620002a6565b5090565b6000604051905090565b600080fd5b600080fd5b600080fd5b600080fd5b6000601f19601f8301169050919050565b7f4e487b7100000000000000000000000000000000000000000000000000000000600052604160045260246000fd5b6200032d82620002e2565b810181811067ffffffffffffffff821117156200034f576200034e620002f3565b5b80604052505050565b600062000364620002c4565b905062000372828262000322565b919050565b600067ffffffffffffffff821115620003955762000394620002f3565b5b620003a082620002e2565b9050602081019050919050565b60005b83811015620003cd578082015181840152602081019050620003b0565b83811115620003dd576000848401525b50505050565b6000620003fa620003f48462000377565b62000358565b905082815260208101848484011115620004195762000418620002dd565b5b62000426848285620003ad565b509392505050565b600082601f830112620004465762000445620002d8565b5b815162000458848260208601620003e3565b91505092915050565b600060ff82169050919050565b620004798162000461565b81146200048557600080fd5b50565b60008151905062000499816200046e565b92915050565b600073ffffffffffffffffffffffffffffffffffffffff82169050919050565b6000620004cc826200049f565b9050919050565b620004de81620004bf565b8114620004ea57600080fd5b50565b600081519050620004fe81620004d3565b92915050565b60008060008060808587031215620005215762000520620002ce565b5b600085015167ffffffffffffffff811115620005425762000541620002d3565b5b62000550878288016200042e565b9450506020620005638782880162000488565b9350506040620005768782880162000488565b92505060606200058987828801620004ed565b91505092959194509250565b600082825260208201905092915050565b7f4f7574206f6620626f756e640000000000000000000000000000000000000000600082015250565b6000620005de600c8362000595565b9150620005eb82620005a6565b602082019050919050565b600060208201905081810360008301526200061181620005cf565b9050919050565b7f4e487b7100000000000000000000000000000000000000000000000000000000600052602160045260246000fd5b7f4e487b7100000000000000000000000000000000000000000000000000000000600052602260045260246000fd5b600060028204905060018216806200068f57607f821691505b60208210811415620006a657620006a562000647565b5b50919050565b61203e80620006bc6000396000f3fe6080604052600436106100a75760003560e01c80636dd7d8ea116100645780636dd7d8ea146101d157806381f539ff146101fa57806386852dca1461022957806392434d7c146102565780639ed1f25514610272578063cdd72253146102b3576100a7565b806306a49fce146100ac57806307be7e91146100d7578063119d4ddb1461010057806318abf0781461012957806328bde1e114610152578063446a37e014610193575b600080fd5b3480156100b857600080fd5b506100c16102de565b6040516100ce919061156e565b60405180910390f35b3480156100e357600080fd5b506100fe60048036038101906100f991906115d0565b61036c565b005b34801561010c57600080fd5b50610127600480360381019061012291906115d0565b6105b4565b005b34801561013557600080fd5b50610150600480360381019061014b91906117b2565b6107fc565b005b34801561015e57600080fd5b50610179600480360381019061017491906115d0565b61096c565b60405161018a959493929190611952565b60405180910390f35b34801561019f57600080fd5b506101ba60048036038101906101b591906115d0565b610b74565b6040516101c89291906119b3565b60405180910390f35b3480156101dd57600080fd5b506101f860048036038101906101f391906115d0565b610bc3565b005b34801561020657600080fd5b5061020f610d54565b6040516102209594939291906119dc565b60405180910390f35b34801561023557600080fd5b5061023e610ed3565b60405161024d93929190611ac6565b60405180910390f35b610270600480360381019061026b9190611b04565b610f98565b005b34801561027e57600080fd5b50610299600480360381019061029491906115d0565b6111cc565b6040516102aa9594939291906119dc565b60405180910390f35b3480156102bf57600080fd5b506102c861134d565b6040516102d5919061156e565b60405180910390f35b6060600680548060200260200160405190810160405280929190818152602001828054801561036257602002820191906000526020600020905b8160009054906101000a900473ffffffffffffffffffffffffffffffffffffffff1673ffffffffffffffffffffffffffffffffffffffff1681526020019060010190808311610318575b5050505050905090565b3373ffffffffffffffffffffffffffffffffffffffff1660008054906101000a900473ffffffffffffffffffffffffffffffffffffffff1673ffffffffffffffffffffffffffffffffffffffff16146103fa576040517f08c379a00000000000000000000000000000000000000000000000000000000081526004016103f190611c15565b60405180910390fd5b6000600281111561040e5761040d6118db565b5b600560008373ffffffffffffffffffffffffffffffffffffffff1673ffffffffffffffffffffffffffffffffffffffff16815260200190815260200160002060040160009054906101000a900460ff1660028111156104705761046f6118db565b5b146104b0576040517f08c379a00000000000000000000000000000000000000000000000000000000081526004016104a790611c81565b60405180910390fd5b601e600560008373ffffffffffffffffffffffffffffffffffffffff1673ffffffffffffffffffffffffffffffffffffffff16815260200190815260200160002060020160009054906101000a900460ff1660ff161015610546576040517f08c379a000000000000000000000000000000000000000000000000000000000815260040161053d90611ced565b60405180910390fd5b6001600560008373ffffffffffffffffffffffffffffffffffffffff1673ffffffffffffffffffffffffffffffffffffffff16815260200190815260200160002060040160006101000a81548160ff021916908360028111156105ac576105ab6118db565b5b021790555050565b3373ffffffffffffffffffffffffffffffffffffffff1660008054906101000a900473ffffffffffffffffffffffffffffffffffffffff1673ffffffffffffffffffffffffffffffffffffffff1614610642576040517f08c379a000000000000000000000000000000000000000000000000000000000815260040161063990611c15565b60405180910390fd5b60006002811115610656576106556118db565b5b600360008373ffffffffffffffffffffffffffffffffffffffff1673ffffffffffffffffffffffffffffffffffffffff16815260200190815260200160002060040160009054906101000a900460ff1660028111156106b8576106b76118db565b5b146106f8576040517f08c379a00000000000000000000000000000000000000000000000000000000081526004016106ef90611d7f565b60405180910390fd5b6012600360008373ffffffffffffffffffffffffffffffffffffffff1673ffffffffffffffffffffffffffffffffffffffff16815260200190815260200160002060010160009054906101000a900460ff1660ff16101561078e576040517f08c379a000000000000000000000000000000000000000000000000000000000815260040161078590611deb565b60405180910390fd5b6001600360008373ffffffffffffffffffffffffffffffffffffffff1673ffffffffffffffffffffffffffffffffffffffff16815260200190815260200160002060040160006101000a81548160ff021916908360028111156107f4576107f36118db565b5b021790555050565b60006040518060a001604052808681526020018560ff16815260200184815260200183815260200160006002811115610838576108376118db565b5b81525090506007339080600181540180825580915050600190039060005260206000200160009091909190916101000a81548173ffffffffffffffffffffffffffffffffffffffff021916908373ffffffffffffffffffffffffffffffffffffffff16021790555080600360003373ffffffffffffffffffffffffffffffffffffffff1673ffffffffffffffffffffffffffffffffffffffff16815260200190815260200160002060008201518160000190805190602001906108fc9291906113db565b5060208201518160010160006101000a81548160ff021916908360ff160217905550604082015181600201556060820151816003015560808201518160040160006101000a81548160ff0219169083600281111561095d5761095c6118db565b5b02179055509050505050505050565b606080600080600080600560008873ffffffffffffffffffffffffffffffffffffffff1673ffffffffffffffffffffffffffffffffffffffff1681526020019081526020016000206040518060a00160405290816000820180546109cf90611e3a565b80601f01602080910402602001604051908101604052809291908181526020018280546109fb90611e3a565b8015610a485780601f10610a1d57610100808354040283529160200191610a48565b820191906000526020600020905b815481529060010190602001808311610a2b57829003601f168201915b50505050508152602001600182018054610a6190611e3a565b80601f0160208091040260200160405190810160405280929190818152602001828054610a8d90611e3a565b8015610ada5780601f10610aaf57610100808354040283529160200191610ada565b820191906000526020600020905b815481529060010190602001808311610abd57829003601f168201915b505050505081526020016002820160009054906101000a900460ff1660ff1660ff168152602001600382015481526020016004820160009054906101000a900460ff166002811115610b2f57610b2e6118db565b5b6002811115610b4157610b406118db565b5b81525050905080600001518160200151826040015183606001518460800151955095509550955095505091939590929450565b600080600460008473ffffffffffffffffffffffffffffffffffffffff1673ffffffffffffffffffffffffffffffffffffffff1681526020019081526020016000205460085491509150915091565b60016002811115610bd757610bd66118db565b5b600360003373ffffffffffffffffffffffffffffffffffffffff1673ffffffffffffffffffffffffffffffffffffffff16815260200190815260200160002060040160009054906101000a900460ff166002811115610c3957610c386118db565b5b14610c79576040517f08c379a0000000000000000000000000000000000000000000000000000000008152600401610c7090611ede565b60405180910390fd5b600460008273ffffffffffffffffffffffffffffffffffffffff1673ffffffffffffffffffffffffffffffffffffffff1681526020019081526020016000206000815480929190610cc990611f2d565b919050555060086000815480929190610ce190611f2d565b91905055506002600360003373ffffffffffffffffffffffffffffffffffffffff1673ffffffffffffffffffffffffffffffffffffffff16815260200190815260200160002060040160006101000a81548160ff02191690836002811115610d4c57610d4b6118db565b5b021790555050565b60606000806000806000600360003373ffffffffffffffffffffffffffffffffffffffff1673ffffffffffffffffffffffffffffffffffffffff1681526020019081526020016000206040518060a0016040529081600082018054610db890611e3a565b80601f0160208091040260200160405190810160405280929190818152602001828054610de490611e3a565b8015610e315780601f10610e0657610100808354040283529160200191610e31565b820191906000526020600020905b815481529060010190602001808311610e1457829003601f168201915b505050505081526020016001820160009054906101000a900460ff1660ff1660ff16815260200160028201548152602001600382015481526020016004820160009054906101000a900460ff166002811115610e9057610e8f6118db565b5b6002811115610ea257610ea16118db565b5b8152505090508060000151816020015182604001518360600151846080015195509550955095509550509091929394565b606060008060016000016001800160009054906101000a900460ff166001800160019054906101000a900460ff16828054610f0d90611e3a565b80601f0160208091040260200160405190810160405280929190818152602001828054610f3990611e3a565b8015610f865780601f10610f5b57610100808354040283529160200191610f86565b820191906000526020600020905b815481529060010190602001808311610f6957829003601f168201915b50505050509250925092509250909192565b670de0b6b3a76400003414610fe2576040517f08c379a0000000000000000000000000000000000000000000000000000000008152600401610fd990611fe8565b60405180910390fd5b60006040518060a001604052808681526020018581526020018460ff1681526020018381526020016000600281111561101e5761101d6118db565b5b81525090506006339080600181540180825580915050600190039060005260206000200160009091909190916101000a81548173ffffffffffffffffffffffffffffffffffffffff021916908373ffffffffffffffffffffffffffffffffffffffff16021790555080600560003373ffffffffffffffffffffffffffffffffffffffff1673ffffffffffffffffffffffffffffffffffffffff16815260200190815260200160002060008201518160000190805190602001906110e29291906113db565b5060208201518160010190805190602001906110ff9291906113db565b5060408201518160020160006101000a81548160ff021916908360ff1602179055506060820151816003015560808201518160040160006101000a81548160ff02191690836002811115611156576111556118db565b5b021790555090505060008054906101000a900473ffffffffffffffffffffffffffffffffffffffff1673ffffffffffffffffffffffffffffffffffffffff166108fc349081150290604051600060405180830381858888f193505050501580156111c4573d6000803e3d6000fd5b505050505050565b60606000806000806000600360008873ffffffffffffffffffffffffffffffffffffffff1673ffffffffffffffffffffffffffffffffffffffff1681526020019081526020016000206040518060a001604052908160008201805461123090611e3a565b80601f016020809104026020016040519081016040528092919081815260200182805461125c90611e3a565b80156112a95780601f1061127e576101008083540402835291602001916112a9565b820191906000526020600020905b81548152906001019060200180831161128c57829003601f168201915b505050505081526020016001820160009054906101000a900460ff1660ff1660ff16815260200160028201548152602001600382015481526020016004820160009054906101000a900460ff166002811115611308576113076118db565b5b600281111561131a576113196118db565b5b81525050905080600001518160200151826040015183606001518460800151955095509550955095505091939590929450565b606060078054806020026020016040519081016040528092919081815260200182805480156113d157602002820191906000526020600020905b8160009054906101000a900473ffffffffffffffffffffffffffffffffffffffff1673ffffffffffffffffffffffffffffffffffffffff1681526020019060010190808311611387575b5050505050905090565b8280546113e790611e3a565b90600052602060002090601f0160209004810192826114095760008555611450565b82601f1061142257805160ff1916838001178555611450565b82800160010185558215611450579182015b8281111561144f578251825591602001919060010190611434565b5b50905061145d9190611461565b5090565b5b8082111561147a576000816000905550600101611462565b5090565b600081519050919050565b600082825260208201905092915050565b6000819050602082019050919050565b600073ffffffffffffffffffffffffffffffffffffffff82169050919050565b60006114d5826114aa565b9050919050565b6114e5816114ca565b82525050565b60006114f783836114dc565b60208301905092915050565b6000602082019050919050565b600061151b8261147e565b6115258185611489565b93506115308361149a565b8060005b8381101561156157815161154888826114eb565b975061155383611503565b925050600181019050611534565b5085935050505092915050565b600060208201905081810360008301526115888184611510565b905092915050565b6000604051905090565b600080fd5b600080fd5b6115ad816114ca565b81146115b857600080fd5b50565b6000813590506115ca816115a4565b92915050565b6000602082840312156115e6576115e561159a565b5b60006115f4848285016115bb565b91505092915050565b600080fd5b600080fd5b6000601f19601f8301169050919050565b7f4e487b7100000000000000000000000000000000000000000000000000000000600052604160045260246000fd5b61165082611607565b810181811067ffffffffffffffff8211171561166f5761166e611618565b5b80604052505050565b6000611682611590565b905061168e8282611647565b919050565b600067ffffffffffffffff8211156116ae576116ad611618565b5b6116b782611607565b9050602081019050919050565b82818337600083830152505050565b60006116e66116e184611693565b611678565b90508281526020810184848401111561170257611701611602565b5b61170d8482856116c4565b509392505050565b600082601f83011261172a576117296115fd565b5b813561173a8482602086016116d3565b91505092915050565b600060ff82169050919050565b61175981611743565b811461176457600080fd5b50565b60008135905061177681611750565b92915050565b6000819050919050565b61178f8161177c565b811461179a57600080fd5b50565b6000813590506117ac81611786565b92915050565b600080600080608085870312156117cc576117cb61159a565b5b600085013567ffffffffffffffff8111156117ea576117e961159f565b5b6117f687828801611715565b945050602061180787828801611767565b93505060406118188782880161179d565b92505060606118298782880161179d565b91505092959194509250565b600081519050919050565b600082825260208201905092915050565b60005b8381101561186f578082015181840152602081019050611854565b8381111561187e576000848401525b50505050565b600061188f82611835565b6118998185611840565b93506118a9818560208601611851565b6118b281611607565b840191505092915050565b6118c681611743565b82525050565b6118d58161177c565b82525050565b7f4e487b7100000000000000000000000000000000000000000000000000000000600052602160045260246000fd5b6003811061191b5761191a6118db565b5b50565b600081905061192c8261190a565b919050565b600061193c8261191e565b9050919050565b61194c81611931565b82525050565b600060a082019050818103600083015261196c8188611884565b905081810360208301526119808187611884565b905061198f60408301866118bd565b61199c60608301856118cc565b6119a96080830184611943565b9695505050505050565b60006040820190506119c860008301856118cc565b6119d560208301846118cc565b9392505050565b600060a08201905081810360008301526119f68188611884565b9050611a0560208301876118bd565b611a1260408301866118cc565b611a1f60608301856118cc565b611a2c6080830184611943565b9695505050505050565b60038110611a4757611a466118db565b5b50565b6000819050611a5882611a36565b919050565b6000611a6882611a4a565b9050919050565b611a7881611a5d565b82525050565b60028110611a8f57611a8e6118db565b5b50565b6000819050611aa082611a7e565b919050565b6000611ab082611a92565b9050919050565b611ac081611aa5565b82525050565b60006060820190508181036000830152611ae08186611884565b9050611aef6020830185611a6f565b611afc6040830184611ab7565b949350505050565b60008060008060808587031215611b1e57611b1d61159a565b5b600085013567ffffffffffffffff811115611b3c57611b3b61159f565b5b611b4887828801611715565b945050602085013567ffffffffffffffff811115611b6957611b6861159f565b5b611b7587828801611715565b9350506040611b8687828801611767565b9250506060611b978782880161179d565b91505092959194509250565b7f4f6e6c792061646d696e6973747261746f72732068617665207468652061636360008201527f65737320746f207468697320616374696f6e0000000000000000000000000000602082015250565b6000611bff603283611840565b9150611c0a82611ba3565b604082019050919050565b60006020820190508181036000830152611c2e81611bf2565b9050919050565b7f43616e646964617465206e6f7420726567697374657265640000000000000000600082015250565b6000611c6b601883611840565b9150611c7682611c35565b602082019050919050565b60006020820190508181036000830152611c9a81611c5e565b9050919050565b7f43616e646964617465206973206e6f7420656c696769626c6500000000000000600082015250565b6000611cd7601983611840565b9150611ce282611ca1565b602082019050919050565b60006020820190508181036000830152611d0681611cca565b9050919050565b7f4569746865722074686520766f746572206973206e6f7420726567697374657260008201527f6564206f7220616c726561647920617070726f76656400000000000000000000602082015250565b6000611d69603683611840565b9150611d7482611d0d565b604082019050919050565b60006020820190508181036000830152611d9881611d5c565b9050919050565b7f4e6f7420616e20656c696769626c6520766f7465720000000000000000000000600082015250565b6000611dd5601583611840565b9150611de082611d9f565b602082019050919050565b60006020820190508181036000830152611e0481611dc8565b9050919050565b7f4e487b7100000000000000000000000000000000000000000000000000000000600052602260045260246000fd5b60006002820490506001821680611e5257607f821691505b60208210811415611e6657611e65611e0b565b5b50919050565b7f45697468657220796f75206e6f742072656769737465726564206f7220616c7260008201527f6561647920766f74656400000000000000000000000000000000000000000000602082015250565b6000611ec8602a83611840565b9150611ed382611e6c565b604082019050919050565b60006020820190508181036000830152611ef781611ebb565b9050919050565b7f4e487b7100000000000000000000000000000000000000000000000000000000600052601160045260246000fd5b6000611f388261177c565b91507fffffffffffffffffffffffffffffffffffffffffffffffffffffffffffffffff821415611f6b57611f6a611efe565b5b600182019050919050565b7f416d6f756e742073686f756c642062652065786163746c7920657175616c207460008201527f6f20312045544845520000000000000000000000000000000000000000000000602082015250565b6000611fd2602983611840565b9150611fdd82611f76565b604082019050919050565b6000602082019050818103600083015261200181611fc5565b905091905056fea2646970667358221220c57089a8c9c509e281adb273bce6f69ddaee2cdce530c6dc34a89625f11184c564736f6c634300080c0033",
  "immutableReferences": {},
  "source": "// SPDX-License-Identifier: MIT\r\npragma solidity >=0.6.0 <0.9.0;\r\n\r\ncontract votingSystem {\r\n\r\n    address payable administrator;\r\n    // mapping (address => bool) registeredList;\r\n    Election electionInfo;\r\n    // mapping (address => Status) voters;\r\n    mapping (address => Voter) voters;\r\n    mapping (address => uint) voteCount;\r\n    // mapping (int8 => Candidate) candidates;\r\n    mapping (address => Candidate) candidates;\r\n    address[] candidateAdd;\r\n    address[] voterAdd;\r\n\r\n    // uint8 candidateNumber;\r\n    \r\n    enum Level {local, state, country}\r\n    enum ElectionType {regular, filling}\r\n    enum Status {registered, approved, voted}\r\n     //false once voted or if changed the address\r\n\r\n    uint totalVote;\r\n\r\n    struct Candidate {\r\n        string name;\r\n        string party;\r\n        uint8 age;\r\n        uint aadharNumber;\r\n        Status candidateStatus;\r\n        // address candidateAddress;\r\n    }\r\n\r\n    // RETHINK: need to have voter's information in the blockchain or not\r\n    struct Voter {\r\n        string name;\r\n        uint8 age;\r\n        uint aadharNumber;\r\n        uint phoneNumber;\r\n        Status currStatus;\r\n    }\r\n\r\n    struct Election {\r\n        string name;\r\n        Level level;\r\n        ElectionType electionType;\r\n    }\r\n\r\n    modifier onlyAdmin {\r\n        require(administrator == msg.sender, \"Only administrators have the access to this action\");\r\n        _;\r\n    }\r\n\r\n// take the election info during construction of the contract\r\n    constructor(string memory _name, uint8 _level, uint8 _electionType, address payable _address) {\r\n        administrator = _address;\r\n        require(_level <= 2, \"Out of bound\");\r\n        require(_electionType <= 1, \"Out of bound\");\r\n        electionInfo = Election(_name, Level(_level), ElectionType(_electionType));\r\n    }\r\n\r\n    function vote(address _address) public {\r\n        require(voters[msg.sender].currStatus == Status.approved, \"Either you not registered or already voted\");\r\n        voteCount[_address]++;\r\n        totalVote++;\r\n        voters[msg.sender].currStatus = Status.voted;\r\n    }\r\n\r\n    // can a person register more than once with this function ?\r\n    function registerVoter(string memory _name, uint8 _age, uint _aadharNumber, uint _phone) public {\r\n        Voter memory newVoter = Voter(_name, _age, _aadharNumber, _phone, Status.registered);\r\n        voterAdd.push(msg.sender);\r\n        voters[msg.sender] = newVoter;\r\n    }\r\n\r\n    //register candidate\r\n    function registerCandidate(string memory _name, string memory _party, uint8 _age, uint _aadharNumber) public payable {\r\n        require(msg.value == 1 ether, \"Amount should be exactly equal to 1 ETHER\");\r\n        Candidate memory newCandidate = Candidate(_name, _party, _age, _aadharNumber, Status.registered);\r\n        candidateAdd.push(msg.sender);\r\n        candidates[msg.sender] = newCandidate;\r\n        administrator.transfer(msg.value);\r\n    } \r\n\r\n    function approveCandidate(address _address) public onlyAdmin {\r\n        // after approving candidate add them in a seperate place with an ID\r\n        require(candidates[_address].candidateStatus == Status.registered,\"Candidate not registered\");\r\n        require(candidates[_address].age >= 30, \"Candidate is not eligible\");\r\n        candidates[_address].candidateStatus = Status.approved;\r\n    }\r\n\r\n    // should I also add register candidate and then approveCandidate or just addCandidate\r\n    // ----> Need to remove this probably\r\n    // function addCandidate(string memory _name, string memory _party, uint8 _age, address _address) public onlyAdmin{\r\n    //     // Candidate storage newCandidate = candidates[candidateNumber];\r\n    //     Candidate storage newCandidate = candidates[_address];\r\n    //     newCandidate.name = _name;\r\n    //     newCandidate.party = _party;\r\n    //     newCandidate.age = _age;\r\n    //     // newCandidate.candidateAddress = _address;\r\n    //     newCandidate.candidateStatus = Status.approved;\r\n    // }\r\n\r\n    function approveVoter(address votersAddress) public onlyAdmin{\r\n        require(voters[votersAddress].currStatus == Status.registered, \"Either the voter is not registered or already approved\");\r\n        require(voters[votersAddress].age >= 18, \"Not an eligible voter\");\r\n        voters[votersAddress].currStatus = Status.approved;\r\n    }\r\n\r\n    function getPersonalInfo() public view returns(string memory, uint8, uint, uint, Status) {\r\n        Voter memory prsInfo = voters[msg.sender];\r\n        return(prsInfo.name, prsInfo.age, prsInfo.aadharNumber, prsInfo.phoneNumber, prsInfo.currStatus);\r\n    }\r\n\r\n    function getElectionInfo() public view returns(string memory, Level, ElectionType) {\r\n        return(electionInfo.name, electionInfo.level, electionInfo.electionType);\r\n    }\r\n\r\n    function getCandidates() public view returns(address[] memory) {\r\n        return(candidateAdd);\r\n    }\r\n\r\n    function getCandidateInfo(address _address) public view returns(string memory, string memory, uint8, uint, Status) {\r\n        Candidate memory candidate = candidates[_address];\r\n        return(candidate.name, candidate.party, candidate.age, candidate.aadharNumber, candidate.candidateStatus);\r\n    }\r\n\r\n    function getVoters() public view returns (address[] memory) {\r\n        return (voterAdd);\r\n    }\r\n\r\n    function getVoterInfo(address _address) public view returns(string memory, uint8, uint, uint, Status) {\r\n        Voter memory voter = voters[_address];\r\n        return(voter.name, voter.age, voter.aadharNumber, voter.phoneNumber, voter.currStatus);\r\n    }\r\n\r\n    function getResult(address _address) public view returns(uint, uint) {\r\n        return (voteCount[_address], totalVote);\r\n    }\r\n    //create show functions that can give the data about the user, candidate, election\r\n}",
  "sourcePath": "E:\\Shashank.summer\\Shashank\\my-proj\\contracts\\contracts\\VotingSystem.sol",
  "compiler": {
    "name": "solc",
    "version": "0.8.12+commit.f00d7308.Emscripten.clang"
  },
  "schemaVersion": "3.4.5",
  "updatedAt": "2022-04-22T04:27:46.919Z",
  "devdoc": {
    "kind": "dev",
    "methods": {},
    "version": 1
  },
  "userdoc": {
    "kind": "user",
    "methods": {},
    "version": 1
  }
}